:100000000C9436190C9476190C9476190C94761974
:100010000C9476190C9476190C9476190C94761924
:100020000C9476190C9476190C9476190C94761914
:100030000C9476190D94A7110C9476190C947619DA
:100040000C9476190C94EAB70C9476190C947619E2
:100050000C9476190C948EB60C9476190D945D114F
:100060000C9476190C94387B0C942E7B0C94761996
:100070000C9476190C9476190C9476190C947619C4
:100080000C9476190C9476190C9476190C947619B4
:100090000C9476190C9476190C9476190C947619A4
:1000A0000C9476190C9476190C9476190C94761994
:1000B0000C9476190C9476190C9476190C94761984
:1000C0000C9476190C9476190C9476190C94761974
:1000D0000C9476190C9476190C9476190C94761964
:1000E0000C947619084AD73B3BCE016E84BCBFFD09
:1000F000C12F3D6C74319ABD56833DDA3D00C77FF8
:1001000011BED9E4BB4C3E916BAAAABE0000008090
:100110003F05A84CCDB2D44EB93836A9020C50B91F
:10012000918688083CA6AAAA2ABE000000803F004B
:100130000D94470A0D941B0B0D944C0A0D94620A02
:100140000D947D0A0D94FC0A0D94660A0D946A1CA8
:100150000D94371B0D94770A0D946D0A0D94000BC6
:100160000D948B0A0D94260B0D946A0A0D94DC18DD
:100170000D94481B0D94D71A0D94571B0D94990A92
:100180000D948F0A0D94730A0D949D0A0D940B0B18
:100190000D94C70A0D945E0A0D947B220D94850A76
:1001A0000D94810A0D94930A0D94AC0A0D94110BD1
:1001B0004E414E494E495459494E46CDCCCC3D0A4C
:1001C000D7233C17B7D13877CC2B329595E6241F2F
:1001D000B14F0A000020410000C84200401C4620E8
:1001E000BCBE4CCA1B0E5AAEC59D7400407A10F3BB
:1001F0005A00A0724E18090010A5D4E80000E87655
:1002000048170000E40B54020000CA9A3B000000AB
:10021000E1F505000080969800000040420F0000C4
:1002200000A08601000000102700000000E8030085
:100230000000006400000000000A0000000000014F
:1002400000000000002C76D888DC674F0823DFC14F
:10025000DFAE59E1B1B796E5E3E453C63AE651990A
:100260007696E8E6C28426EB898C9B62ED407C6F33
:10027000FCEFBC9C9F40F2BAA56FA5F490055A2AEA
:10028000F75C936B6CF9676DC11BFCE0E40D47FEF6
:10029000F520E6B500D0ED902E03009435770500EB
:1002A00080841E080000204E0A000000C80C333372
:1002B00033330F986E12831141EF8D2114893BE681
:1002C0005516CFFEE6DB18D1844B381BF77C1D900A
:1002D0001DA4BBE424203284725E228100C9F12473
:1002E000ECA1E53D27554E4C4F41442046494C4139
:1002F0004D454E54004C4F41442046494C414D45DC
:100300004E540046494C414D454E54204348414EC1
:1003100047450041425300504C41004361703A0050
:10032000434F4E4649475F4558504F5254004D4544
:1003300041545041434B00434F4F4C45525F54454D
:100340004D5045524154555245004348414D424558
:10035000525F54454D50455241545552450042411B
:1003600042595354455050494E470041524353005F
:100370004D4F54494F4E5F4D4F44455300544845EF
:10038000524D414C5F50524F54454354494F4E00DB
:10039000455854454E4445445F4D32300043555313
:1003A000544F4D5F4649524D574152455F55504C51
:1003B0004F4144004C464E5F5752495445004C4F04
:1003C0004E475F46494C454E414D45004155544FBF
:1003D0005245504F52545F53445F53544154555308
:1003E0000053445F575249544500524550454154CB
:1003F000004D554C54495F564F4C554D45005344A4
:10040000434152440050524F4D50545F5355505049
:100410004F525400484F53545F414354494F4E5F2D
:10042000434F4D4D414E445300454D455247454E77
:1004300043595F50415253455200434153455F4C2D
:10044000494748545F4252494748544E4553530028
:10045000544F47474C455F4C494748545300534F0E
:100460004654574152455F504F57455200425549F7
:100470004C445F50455243454E54004C4556454C04
:10048000494E475F44415441005A5F50524F4245E4
:100490000052554E4F5554004155544F4C4556450A
:1004A0004C005052494E545F4A4F420050524F4701
:1004B00052455353004155544F5245504F52545F8B
:1004C00054454D50004155544F5245504F52545F82
:1004D000504F5300564F4C554D45545249430045DB
:1004E0004550524F4D0042494E4152595F46494C8A
:1004F000455F5452414E534645520053455249417F
:100500004C5F584F4E5F584F4646004649524D5734
:100510004152455F4E414D453A4D61726C696E20C6
:10052000322E302E392E3620284D6179202036206B
:10053000323032332031323A33323A343629205392
:100540004F555243455F434F44455F55524C3A67C0
:1005500069746875622E636F6D2F4D61726C696E80
:100560004669726D776172652F4D61726C696E209C
:1005700050524F544F434F4C5F56455253494F4E84
:100580003A312E30204D414348494E455F54595031
:10059000453A556C74696D61746532204558545202
:1005A000554445525F434F554E543A3120555549B5
:1005B000443A63656465326132662D343161322DAF
:1005C000343734382D396231322D63353563363264
:1005D0006633363766660A0020286D6D29003B2099
:1005E00000203B00205A0020590020204D38353192
:1005F000205800290A0020746F20003F5A206F7590
:1006000074206F662072616E6765202800290A00D9
:1006100020746F20003F59206F7574206F66207220
:10062000616E676520282D00290A0020746F200064
:100630003F58206F7574206F662072616E67652069
:10064000282D002569730025696D20256973002513
:1006500069682025696D2025697300256964202556
:1006600069682025696D2025697300256979202531
:100670006964202569682025696D20256973004318
:100680006F6F6C696E672E2E2E004531202553004A
:1006900042656420436F6F6C696E672E2E2E004298
:1006A00065642048656174696E672E2E2E00236490
:1006B0006566696E652044454641554C545F0000AF
:1006C000626564004B6420004B6920004B70200081
:1006D0002066696E697368656421205075742074A2
:1006E0006865206C617374204B702C204B6920610D
:1006F0006E64204B6420636F6E7374616E7473203C
:1007000066726F6D2062656C6F7720696E746F2002
:10071000436F6E66696775726174696F6E2E680AE1
:1007200000504944204175746F74756E65002066F1
:1007300061696C6564212074696D656F75740A0068
:10074000504944204175746F74756E650020666170
:10075000696C6564212054656D7065726174757291
:100760006520746F6F20686967680A0050494420EB
:100770004175746F74756E65005049442043796308
:100780006C65730025532025692F256900204B6473
:100790003A2000204B693A2000204B703A2000207C
:1007A000436C617373696320504944200A00204EF2
:1007B0006F206F76657273686F6F740A00205475CE
:1007C0003A2000204B753A2000206D61783A2000D5
:1007D000206D696E3A200020643A20002062696131
:1007E000733A200048656174696E672E2E2E0020D2
:1007F00073746172740A00504944204175746F74B7
:10080000756E6500206661696C6564212054656DB4
:10081000706572617475726520746F6F20686967A6
:10082000680A00504944204175746F74756E650004
:10083000504944204175746F74756E65002066617F
:10084000696C656421204261642068656174657229
:100850002069640A00504944204175746F74756EB4
:1008600065004572723A207574663820666F6E7442
:10087000206E6F7420696E697469616C697A656451
:100880002E004572723A207574663820666F6E7459
:10089000206E6F7420696E697469616C697A656431
:1008A0002E004572723A207574663820666F6E7439
:1008B000206E6F7420696E697469616C697A656411
:1008C0002E0042656400456E636C6F73757265003F
:1008D0002568753A25303268750025303268753ADA
:1008E000253032687500253032687527253032682A
:1008F0007500256875642025303268753A253032D8
:1009000068750020202020202020002020202000AA
:10091000657272001FE0201020102010102010209F
:100920002010201030300840048003001FE03FF00A
:100930003FF03FF01FE01FE03FF03FF03FF00FC0FF
:10094000078003003FFFF038007030FC3020FC10BF
:100950002078102030102C00D02E31D02F7BD02FBB
:100960007BD02E31D02C00D020301020781020FCED
:100970001030FC303800703FFFF03FFFF03800705F
:100980003186302387102787902F87D02F03D020E0
:1009900030102078102078102030102F03D02F87AF
:1009A000D02787902387103186303800703FFFF0C2
:1009B0001FFFF81FFFF8041040020820020820045F
:1009C00010400820801041001041000820800410D1
:1009D000400000001FFFF81FFFF85072696E74207E
:1009E00041626F72746564004D32350050617573F9
:1009F000696E672E2E2E004D323400454550524F01
:100A00004D2056657273696F6E204572726F720069
:100A1000454550524F4D20496E64657820457272AD
:100A20006F7200454550524F4D204352432045724E
:100A3000726F72003F0049676E6F72650052657396
:100A4000657400496E697469616C697A6520454511
:100A500050524F4D0050726F6265205A204F6666AB
:100A6000736574004C6F6164206D6D00556E6C6F22
:100A70006164206D6D0046696C2E204469612E0012
:100A80004520696E206D6D5E3300416476616E6352
:100A900065204B004D3330332055312045256920EA
:100AA00053256900504944204175746F74756E6513
:100AB000202A005049442D44202A005049442D4901
:100AC000202A005049442D50202A00200820466149
:100AD0006374002008204D6178002008204D696E65
:100AE000004F6666004F6E004175746F74656D70DF
:100AF00000402073746570732F6D6D0041647661E2
:100B00006E6365642053657474696E67730046692B
:100B10006C616D656E740054656D7065726174759D
:100B200072650053746570732F6D6D00436F6E6650
:100B3000696775726174696F6E00526573746F7264
:100B4000652044656661756C7473004C6F61642048
:100B500053657474696E67730053746F72652053C4
:100B6000657474696E6773004F6666004F6E00525D
:100B7000756E6F75742053656E736F72004C4344CD
:100B800020436F6E74726173740050726F626520DF
:100B90005A204F666673657400416476616E6365C2
:100BA000642053657474696E6773004D61696E00EB
:100BB0004D37303220542564004D363030204230DD
:100BC00020542564004D373032203B2564004D37DA
:100BD000303120542564004368616E6765204669A2
:100BE0006C616D656E740050726568656174204358
:100BF0007573746F6D0050726568656174202400B0
:100C00004261636B004D363030423000436F6E748A
:100C1000696E7565004F6666004F6E0052756E6FA7
:100C200075742053656E736F72005075726765201E
:100C30006D6F726500524553554D45204F505449D4
:100C40004F4E533A005052494E542050415553454F
:100C5000440020204E6F7A7A6C653A200050617211
:100C60006B696E672E2E2E00000057616974206636
:100C70006F720066696C616D656E74206368616E89
:100C8000676500746F2073746172740057616974D2
:100C900020666F720066696C616D656E7420756E9A
:100CA0006C6F616400004E6F7A7A6C6520686561D4
:100CB00074696E6700506C65617365207761697453
:100CC0002E2E2E0000507265737320627574746F3F
:100CD0006E00746F2068656174206E6F7A7A6C653F
:100CE0000000496E736572742066696C616D656E93
:100CF0007400616E64207072657373206275747421
:100D00006F6E00746F20636F6E74696E7565005747
:100D100061697420666F720066696C616D656E74DE
:100D2000206C6F61640000507265737320427574AB
:100D3000746F6E00746F20726573756D65207072CC
:100D4000696E7400005761697420666F722070725A
:100D5000696E7400746F20726573756D652E2E2E2A
:100D600000005761697420666F720066696C616D7E
:100D7000656E7420707572676500003F00426163A4
:100D80006B0053746F70003F004E4F005945530085
:100D90004E6F204D65646961005072696E74206603
:100DA000726F6D204D65646961004368616E6765AF
:100DB000204D65646961004D3231004368616E67A2
:100DC000652046696C616D656E7400436F6E66697F
:100DD0006775726174696F6E0054656D70657261DC
:100DE00074757265004D6F74696F6E00526573752E
:100DF0006D65205072696E740054756E6500537491
:100E00006F70205072696E74005061757365205068
:100E100072696E7400496E666F2053637265656E09
:100E2000003F005374617274205072696E74004305
:100E3000616E63656C005072696E740043616E6E22
:100E40006F7420656E746572207375626469723A9E
:100E5000200002202E2E004D61696E002100486F97
:100E600074656E6420746F6F20636F6C6400426100
:100E7000636B0050726F63656564004D6F7665202B
:100E80004578747275646572004D6F74696F6E0099
:100E900044697361626C6520537465707065727328
:100EA000004D3834004D34382050726F6265205444
:100EB000657374004732384F0A4D34382050313052
:100EC000004175746F20486F6D6500473238004DE2
:100ED00061696E0050726568656174202420426506
:100EE000640050726568656174202420456E64005A
:100EF00054656D7065726174757265001703130334
:100F0000436F6F6C646F776E0050726568656174D3
:100F100020240046616E205370656564004265645C
:100F2000004E6F7A7A6C65004D61696E0050726F89
:100F30006265205A204F666673657400466C6F7751
:100F40000046616E20537065656400426564004E22
:100F50006F7A7A6C65005370656564004D61696EE7
:100F600000000C0F00FE07022503BB017FFE08FEF8
:100F700008FE05080806000040F0C8888898781028
:100F8000050808060000C0F88888888888F80505E4
:100F9000050600012030F830200508080600002072
:100FA00070F820202020E00509090600FF2070A825
:100FB000A8B888887020070505070001D86C366C32
:100FC000D80509090600FFF8A88888888888A8F845
:100FD000050A0A0600FE205050505088A8A88870C4
:100FE00003030306000340A040FFFFFFFFFFFFFFD6
:100FF000FFFFFFFFFFFFFFFFFFFFFFFFFFFFFF0000
:1010000000000605FF01070706020080808080803F
:101010000080030303060105A0A0A0050606060044
:101020000050F85050F8500509090600FF2070A83C
:10103000A07028A87020050707060000C8C8102067
:1010400040989805070706000040A0A040A89068B7
:101050000103030602058080800309090601FF20C1
:1010600040408080804040200309090601FF804005
:101070004020202040408005070706000020A8707F
:101080002070A8200505050600012020F820200278
:1010900003030601FFC04080050101060003F802BA
:1010A0000202060100C0C005070706000008101074
:1010B00020404080050707060000708898A8C8886F
:1010C0007003070706010040C040404040E00507AC
:1010D00007060000708808102040F8050707060082
:1010E00000F8081030088870050707060000103067
:1010F0005090F81010050707060000F880F0080867
:101100008870050707060000304080F08888700569
:101110000707060000F80810102020200507070622
:1011200000007088887088887005070706000070C6
:10113000888878081060020505060100C0C000C05C
:10114000C00206060601FFC0C000C04080030505BE
:101150000601012040804020050303060002F8003C
:10116000F8030505060101804020408005070706B9
:10117000000070881020200020050707060000707E
:1011800088B8A8B88070050707060000708888F83E
:10119000888888050707060000F04848704848F02E
:1011A00005070706000070888080808870050707A3
:1011B000060000F04848484848F0050707060000C8
:1011C000F88080F08080F8050707060000F880802E
:1011D000F08080800507070600007088808098886E
:1011E00070050707060000888888F8888888030744
:1011F00007060100E04040404040E00507070600C8
:101200000038101010109060050707060000889045
:10121000A0C0A0908805070706000080808080801D
:1012200080F805070706000088D8A8888888880500
:1012300007070600008888C8A89888880507070659
:10124000000070888888888870050707060000F00D
:101250008888F080808005070706000070888888ED
:10126000A89068050707060000F08888F0A090881D
:10127000050707060000708880700888700507075A
:10128000060000F820202020202005070706000087
:1012900088888888888870050707060000888888FD
:1012A0008850502005070706000088888888A8A86D
:1012B00050050707060000888850205088880507D9
:1012C0000706000088885020202020050707060018
:1012D00000F80810204080F80309090601FFE080AB
:1012E000808080808080E005070706000080404005
:1012F000201010080309090601FFE020202020200B
:101300002020E005030306000520508805010106A2
:1013100000FEF803030306010580402005050506CD
:10132000000070087888780507070600008080F0C4
:10133000888888F0050505060000708080887005A3
:1013400007070600000808788888887805050506DC
:1013500000007088F08070050707060000304840E4
:10136000E04040400507070600FE7088888878083E
:10137000700507070600008080F0888888880307CA
:10138000070601004000C0404040E0040909060192
:10139000FE100030101010109060050707060000C6
:1013A00080808890E09088030707060100C04040D5
:1013B000404040E0050505060000D0A8A8A8A80503
:1013C0000505060000B0C8888888050505060000E8
:1013D00070888888700507070600FEF0888888F006
:1013E00080800507070600FE788888887808080549
:1013F0000505060000B0C8808080050505060000D0
:1014000078807008F00507070600002020F82020EB
:1014100020180505050600008888889868050505D8
:101420000600008888885020050505060000888889
:10143000A8A850050505060000885020508805071B
:10144000070600FE888888502040800505050600B4
:1014500000F8102040F80309090601FF2040404031
:1014600080404040200109090602FF808080808082
:10147000808080800309090601FF804040402040B1
:1014800040408005030306000248A890FF434F4DEB
:101490004D554E49434154494F4E004452595255BF
:1014A0004E004552524F525300494E464F0045435D
:1014B000484F004572726F722077726974696E6767
:1014C00020746F20454550524F4D210A0053544F10
:1014D000505045442E20005072696E74657220731E
:1014E000746F707065642064756520746F20657218
:1014F000726F72732E204669782074686520657259
:10150000726F7220616E6420757365204D393939B0
:1015100020746F20726573746172742E2028546574
:101520006D70657261747572652069732072657380
:1015300065742E2053657420697420616674657229
:101540002072657374617274696E67290A004E6F48
:1015500020436865636B73756D2077697468206CD0
:10156000696E65206E756D6265722C204C617374B6
:10157000204C696E653A20004E6F20436865636BAE
:1015800073756D2077697468206C696E65206E755F
:101590006D6265722C204C617374204C696E653AE3
:1015A0002000636865636B73756D206D69736D6191
:1015B0007463682C204C617374204C696E653A200A
:1015C000004C696E65204E756D62657220697320EE
:1015D0006E6F74204C617374204C696E65204E757B
:1015E0006D6265722B312C204C617374204C696ED6
:1015F000653A20004D3131300053657269616C20CD
:10160000737461747573206D69736D617463680AB6
:101610000053442072656164206572726F720A0023
:10162000746F6F206D75636820696E61637469768D
:10163000652074696D65202D2063757272656E7406
:1016400020636F6D6D616E643A20002121204B494B
:101650004C4C20636175736564206279200062756B
:1016600073793A2070617573656420666F722069C2
:101670006E7075740A00627573793A2070617573C3
:10168000656420666F7220757365720A00627573F7
:10169000793A2070726F63657373696E670A004DE3
:1016A000656469612052656D6F766564004D65649F
:1016B000696120496E736572746564004D3630301F
:1016C00000506C65617365205265736574005052FB
:1016D000494E5445522048414C5445440025533A04
:1016E000202553004B494C4C45442E200050726934
:1016F0006E7465722068616C7465642E206B696C11
:101700006C28292063616C6C6564210A006563683C
:101710006F3A004572726F723A0042696C696E6589
:101720006172204C6576656C696E672047726964EA
:101730003A0A00486F74656E6420746F6F20636F9F
:101740006C640A004732362043616E63656C6564E1
:10175000004732362048656174696E67204E6F7AA3
:101760007A6C65004732362048656174696E67207F
:101770004265640057616974696E6720666F722004
:101780006865617475702E0A004669786564204C3E
:10179000656E677468205072696D6500446F6E6590
:1017A000205072696D696E67004D616E75616C20C5
:1017B0007072696D696E672E2E2E004C65617669B8
:1017C0006E6720473236003F53706563696669650E
:1017D0006420582C5920636F6F7264696E61746560
:1017E000206F7574206F6620626F756E64732E0AA9
:1017F000003F28522965706561742076616C7565BB
:10180000206E6F7420706C61757369626C653B202B
:101810006D757374206265206174206C65617374EA
:1018200020312E0A003F5370656369666965642044
:101830006E6F7A7A6C652074656D7065726174750F
:101840007265206E6F7420706C61757369626C656F
:101850002E0A003F53706563696669656420666996
:101860006C616D656E742073697A65206E6F74208B
:10187000706C61757369626C652E0A003F53706508
:10188000636966696564207072696D65206C656E58
:10189000677468206E6F7420706C61757369626C18
:1018A000652E0A003F537065636966696564206E42
:1018B0006F7A7A6C652073697A65206E6F74207018
:1018C0006C61757369626C652E0A003F52657472B3
:1018D000616374696F6E204D756C7469706C6965B5
:1018E00072206D757374206265207370656369661C
:1018F0006965642E0A003F537065636966696564B3
:101900002052657472616374696F6E204D756C74DA
:1019100069706C696572206E6F7420706C6175738C
:1019200069626C652E0A003F53706563696669657C
:1019300064206C6179657220686569676874206EDF
:101940006F7420706C61757369626C652E0A004358
:10195000292E0A003F5370656369666965642062D9
:1019600065642074656D7065726174757265206E52
:101970006F7420706C61757369626C6520283430F7
:101980002D00473236207374617274696E672E2E93
:101990002E0A004F46460A00466164652048656984
:1019A0006768742000426564204C6576656C696EDA
:1019B0006720004661696C656420746F20656E6104
:1019C000626C6520426564204C6576656C696E6763
:1019D0000A00496E76616C6964206D6573682E0A31
:1019E000004265642048656174696E672E2E2E0082
:1019F0005761697420666F72206265642068656152
:101A000074696E672E2E2E0A0050726568656174C7
:101A1000696E672E2E2E0050726F62696E672050BD
:101A20006F696E740025532025692F2569002E0AE1
:101A3000002F0050726F62696E67206D65736820B9
:101A4000706F696E742000202844525952554E29F7
:101A500000473239204175746F20426564204C651F
:101A600076656C696E67003F20284C2C522C462C02
:101A70004229206F7574206F6620626F756E6473E3
:101A80002E0A003F2856296572626F7365206C65C7
:101A900076656C20696D706C61757369626C652028
:101AA00028302D34292E0A00426164205A207661A4
:101AB0006C75650A004E6F2062696C696E656172B3
:101AC00020677269640A00446576696174696F6EA3
:101AD0000025533A2025730046696E697368656472
:101AE000210A003A207A3A2000206F662000476FD2
:101AF000696E6720746F3A20580043570A002064CB
:101B000069723A0020616E676C653A0053746172C5
:101B100074207261646975733A004D343820506FD7
:101B2000696E740025533A2025642F256400506F98
:101B3000736974696F6E696E67207468652070726E
:101B40006F62652E2E2E0A003F4C656773206F660C
:101B5000206D6F76656D656E7420696D706C617552
:101B60007369626C652028302D3135292E0A003FBB
:101B70002028582C5929206F7574206F6620626FB9
:101B8000756E64732E0A0050726F6265206F7574F3
:101B9000206F6620626F756E6473003F53616D70D5
:101BA0006C652073697A65206E6F7420706C617546
:101BB0007369626C652028342D3530292E0A004D5A
:101BC0003438205A2D50726F6265205265706561FD
:101BD000746162696C69747920546573740A003F9A
:101BE0002856296572626F7365206C6576656C2076
:101BF000696D706C61757369626C652028302D3475
:101C0000292E0A005374616E646172642044657603
:101C1000696174696F6E3A20002052616E67653A9F
:101C20002000204D61783A2000204D696E3A200056
:101C3000205369676D613A20004D65616E3A20005E
:101C400020530020204D3230352042005741524E63
:101C5000494E4721204C6F77205A204A65726B20ED
:101C60006D6179206C65616420746F20756E776199
:101C70006E746564207061757365732E0A00496E19
:101C8000736572742066696C616D656E7420616E37
:101C90006420707265737320627574746F6E0A00CD
:101CA000507265737320627574746F6E20746F2048
:101CB00068656174206E6F7A7A6C650A00496E738C
:101CC0006572742066696C616D656E7420616E6406
:101CD00020707265737320627574746F6E0A0020D1
:101CE000496E76616C69642065787472756465729A
:101CF000200047322F473320626164207061726197
:101D00006D65746572730A00536C6565702E2E2EB6
:101D1000004732384C3000205A3A200020593A20EF
:101D20000042656420583A20004D65736820706F4A
:101D3000696E74206F7574206F662072616E6765BE
:101D40000A00436C69636B20746F20526573756D74
:101D5000652E2E2E004E6F204D6F76652E00456E3F
:101D6000642066696C65206C6973740A004265675B
:101D7000696E2066696C65206C6973740A004E6F29
:101D8000206D656469610A00286E6F2066696C6564
:101D9000290043757272656E742066696C653A201D
:101DA000005344207072696E74696E6720627974A2
:101DB0006520004E6F74205344207072696E746900
:101DC0006E670A002E0A0044656C6574696F6E20A8
:101DD0006661696C65642C2046696C653A20004632
:101DE000696C652064656C657465643A005072695D
:101DF0006E742074696D653A20000A5374617473BF
:101E00003A2046696C616D656E7420757365643A3D
:101E100020002C204C6F6E67657374206A6F623AE5
:101E20002000546F74616C2074696D653A20005312
:101E3000746174733A20002C204661696C65643AC1
:101E400020002C2046696E69736865643A20005052
:101E500072696E74733A200053746174733A20008F
:101E60006F6B006F666600AE14A914A2149B148DEC
:101E70001444454255473A004D313132205368757C
:101E800074646F776E004D313133205300556C749C
:101E9000696D61746532204F46462E0020204D3911
:101EA000322058002F2F004D31343520533C696EBD
:101EB0006465783E206F7574206F662072616E676E
:101EC000652028302D31290A0020440020204D3281
:101ED000303020530020204D323031205800204532
:101EE0000020204D32303320580020540020520072
:101EF00020204D32303420500020204D323036200A
:101F0000580020580020204D61783A200020002001
:101F1000204D696E3A2000203B200020204D3231B8
:101F20003120530046523A0020466C6F773A200029
:101F300050726F6265204F6666736574205A005058
:101F4000726F6265204F6666736574205A00204484
:101F50000020490020204D33303120500020440023
:101F600020490020204D33303420500020204D32B5
:101F7000353020430064697300656E0043290A0010
:101F800061626C656420286D696E2074656D7020D7
:101F900000436F6C642065787472756465732061AA
:101FA000726520004F4646004F4E0046696C616DD9
:101FB000656E742072756E6F757420004D34323109
:101FC00020696E636F727265637420706172616DF7
:101FD000657465722075736167650A004D65736885
:101FE00020706F696E74206F7574206F6620726147
:101FF0006E67650A004F6666736574732041707082
:102000006C696564004572723A20546F6F20666196
:10201000722100546F6F206661722066726F6D20AE
:102020007265666572656E636520706F696E740AAD
:1020300000454550524F4D204F4B0A00203B002099
:10204000550020204D363033204C002E0A00202829
:10205000302D313029002076616C7565206F7574E4
:10206000206F662072616E676500416476616E6301
:1020700065204B3D004D383400446F6E6520707212
:10208000696E74696E672066696C650A004D373742
:10209000004D3331006F70656E005452494747451B
:1020A000524544003A200066696C616D656E7400AB
:1020B0007A5F6D6178007A5F6D696E00795F6D613E
:1020C0007800785F6D6178005265706F7274696E28
:1020D0006720656E6473746F7020737461747573B8
:1020E0000A0020746F6F206C6F6E672065787472C1
:1020F0007573696F6E2070726576656E7465640ABB
:102100000020636F6C6420657874727573696F6EFC
:102110002070726576656E7465640A00000048433D
:102120000000164300002A435761726E696E673AD9
:1021300020486F6D696E672042756D702044697626
:1021400069736F72203C20310A00020204000048CB
:10215000430000164300002A430000A0400000A0F6
:102160004000000040000048430000164300002AE1
:1021700043000000000000000000000000536574F0
:1021800074696E67732053746F72656400290A0066
:102190002062797465733B20637263200053657419
:1021A00074696E67732053746F72656420280048E9
:1021B000617264636F6465642044656661756C7404
:1021C0002053657474696E6773204C6F6164656435
:1021D00000454550524F4D206461746173697A65C2
:1021E000206572726F722E0A00290A0020627974CB
:1021F00065733B2063726320002073746F726564A3
:102200002073657474696E67732072657472696592
:10221000766564202800202863616C63756C6174A6
:10222000656429210A0020213D2000454550524F78
:102230004D20435243206D69736D61746368202D96
:10224000202873746F7265642920002053697A65B1
:102250003A2000496E6465783A20000000964300F9
:102260000096430000A0400000C8410000BC4200AE
:1022700000BC420000C8430000B442B80B0000B8E4
:102280000B00006400000010270000204D61726CFC
:10229000696E3D563836290A00454550524F4D204B
:1022A00076657273696F6E206D69736D61746368B2
:1022B0002028454550524F4D3D0024F4D43050C3A2
:1022C0008E20C2A24017828B7011127A910D816C00
:1022D000D90AA861E108C7586607615143061E4B39
:1022E0005D05C145A7041A411104093D98037139E0
:1022F00031034036DB0265339102D4305402802E24
:102300001D02632CEE01752AC501B028A00110271B
:1023100081018F2564012B244B01E0223401AC2183
:102320001F018D200D01801FFC00841EED00971DF4
:10233000DF00B81CD200E61BC600201BBC00641ADC
:10234000B200B219A8000A19A0006A189900D117A2
:10235000910040178B00B516840031167E00B3152E
:1023600079003A157300C7146F0058146A00EE1311
:1023700066008813630025135E00C7125B006C12B1
:10238000570015125400C111510070114F00211156
:102390004B00D61049008D10470046104400021033
:1023A0004200C00F4000800F3E00420F3C00060F6D
:1023B0003B00CB0E3800930E37005C0E3500270E25
:1023C0003400F30D3200C10D3100900D3000600D6E
:1023D0002E00320D2D00050D2C00D90C2B00AE0C5B
:1023E0002900850C29005C0C2700350C27000E0CF9
:1023F0002600E80B2400C40B2400A00B23007D0B57
:1024000023005A0B2100390B2100180B2000F80A79
:102410001F00D90A1E00BB0A1E009D0A1D00800A6B
:102420001D00630A1C00470A1B002C0A1B00110A2E
:102430001A00F7091A00DD091900C4091900AB09CF
:102440001900920917007B091800630917004C094D
:10245000160036091600200916000A091500F508AD
:102460001500E0081400CC081400B8081400A408F3
:102470001400900813007D0812006B081300580820
:102480001200460812003408110023081100120837
:10249000110001081100F0071000E0071000D0073C
:1024A0001000C0071000B0070F00A107100091072F
:1024B0000E0083070F0074070F0065070E00570713
:1024C0000E0049070E003B070D002E070E002007E7
:1024D0000D0013070D0006070D00F9060C00ED06B0
:1024E0000D00E0060C00D4060C00C8060C00BC066B
:1024F0000C00B0060C00A4060B0099060C008D061B
:102500000B0082060B0077060B006C060B006106C1
:102510000A0057060B004C060A0042060A0038065D
:102520000A002E060A0024060A001A060A001006EF
:10253000090007060A00FD050900F4050900EB057E
:102540000900E2050900D9050900D0050900C70501
:102550000900BE050900B5050800AD050800A50580
:1025600009009C050800940508008C0508008405F6
:1025700008007C050800740508006C050700650567
:1025800008005D050700560508004E0507004705D1
:1025900007004005080038050700310507002A0537
:1025A0000700230507001C050600160507000F0598
:1025B00007000805060002050700FB040600F504F5
:1025C0000700EE040600E8040600E2040700DB044E
:1025D0000600D5040600CF040600C9040600C304A3
:1025E0000600BD040600B7040600B1040500AC04F3
:1025F0000600A6040600A00405009B04060095043E
:102600000500900406008A04050085040500800486
:1026100006007A04050075040500700405006B04CB
:10262000050066040500610405005C04050057040C
:102630000500520405004D0405004804050043044C
:1026400005003E0404003A0405003504050030048A
:1026500004002C04050027040400230405001E04C4
:1026600004001A04040016040500110404000D04FB
:102670000400090405000404040000040400FC0331
:102680000400F8030400F4030400F0030400EC0366
:102690000400E8030400E4030400E0030400DC0396
:1026A0000400D8030400D4030400D0030400CC03C6
:1026B0000400C8030300C503030024F404D9201B4D
:1026C000C40C5C0E9804C4095F0265077101F4052F
:1026D000F900FB04B30048048700C10369005803F4
:1026E000550003034500BE023A0084023100530244
:1026F0002A002902250004022000E4011C00C80170
:102700001900AF0117009801140084011300710132
:1027100010006101100051010E0043010D0036014F
:102720000B002B010B0020010B00150109000C010F
:10273000090003010800FB000800F3000800EB009B
:102740000700E4000600DE000600D8000600D20004
:102750000600CC000500C7000500C2000500BD0052
:102760000400B9000400B5000400B1000400AD008D
:102770000400A9000400A5000300A20003009F00BC
:1027800004009B00030098000300950002009300E2
:102790000300900003008D0002008B0003008800FE
:1027A00002008600020084000300810002007F0016
:1027B00002007D0002007B00020079000200770029
:1027C0000100760002007400020072000100710036
:1027D00002006F0002006D0001006C0002006A0040
:1027E0000100690002006700010066000100650049
:1027F000010064000200620001006100010060004D
:1028000001005F0002005D0001005C0001005B0050
:1028100001005A0001005900010058000100570052
:102820000100560001005500010054000100530052
:10283000000053000100520001005100010050004F
:1028400001004F0001004E0000004E0001004D004D
:1028500001004C0001004B0000004B0001004A0049
:102860000100490001004800000048000100470045
:102870000100460000004600010045000000450040
:102880000100440001004300000043000100420039
:102890000000420001004100000041000100400032
:1028A00001003F0000003F0001003E0000003E002C
:1028B00001003D0000003D0001003C0000003C0024
:1028C00000003C0001003B0000003B0001003A001A
:1028D00000003A0001003900000039000100380012
:1028E0000000380000003800010037000000370009
:1028F00001003600000036000000360001003500FF
:1029000000003500000035000100340000003400F4
:1029100000003400010033000000330000003300E9
:1029200001003200000032000000320001003100DE
:1029300000003100000031000100300000003000D4
:102940000000300001002F0000002F0000002F00C9
:1029500000002F0001002E0000002E0000002E00BD
:1029600001002D0000002D0000002D0000002D00B2
:1029700001002C0000002C0000002C0000002C00A6
:1029800001002B0000002B0000002B0000002B009A
:1029900001002A0000002A0000002A0000002A008E
:1029A0000100290000002900000029000000290082
:1029B0000000290001002800000028000000280075
:1029C0000000280000002800010027000000270068
:1029D000000027000000270000002700010026005B
:1029E000000026000000260000002600000026004F
:1029F0000100250000002500000025000000250042
:102A00000000250000002500010024000000240033
:102A10000000240000002400000024000100230026
:102A2000000023000000230000002300000023001A
:102A3000000023000000230001002200000022000B
:102A400000002200000022000000220000002200FE
:102A500001002100000021000000210000002100F1
:102A600000002100000021000000210001002000E2
:102A700000002000000020000000200000002000D6
:102A800000002000000020000000200001001F00C6
:102A900000001F0000001F0000001F0000001F00BA
:102AA00000001F0000001F0001001E0000001E00AB
:102AB00000001E0000001E000000C23100001C26A5
:102AC0000000F4190000D80F0000EB080000C0045B
:102AD0000000750200004001000020436F756E7415
:102AE00020583A00004265640045310045006265A7
:102AF00064002C2073797374656D2073746F70702B
:102B0000656421204865617465725F49443A20001C
:102B10004572723A204D415854454D50004D415830
:102B200054454D502074726967676572656400484A
:102B3000656174696E67204661696C65640048650B
:102B40006174696E67206661696C656400457272C4
:102B50003A204D494E54454D50004D494E54454D37
:102B60005020747269676765726564005448455205
:102B70004D414C2052554E415741590054686572A1
:102B80006D616C2052756E6177617900202F002095
:102B900042403A0020403A0020573A0020573A007D
:102BA000496E76616C6964206578747275646572CB
:102BB0000A007C3C3E5E2B3D3F2F5B5D3B2C2A2276
:102BC0005C0043616E6E6F74206F70656E2073756C
:102BD0006264697220004D6564696120496E6974A0
:102BE000204661696C0053442063617264206F6BFE
:102BF0000A006F70656E526F6F74206661696C6554
:102C0000640A00766F6C756D652E696E6974206656
:102C100061696C65640A004E6F20534420636172E1
:102C2000640A000A4D3234004D3233202573002EE1
:102C30000A006F70656E206661696C65642C2046C1
:102C4000696C653A200046696C652073656C656344
:102C50007465640A002053697A653A200046696CFD
:102C600065206F70656E65643A2000454E442053C0
:102C70005542524F5554494E450A002220706F73F9
:102C8000002220706172656E743A220053554252E0
:102C90004F5554494E452043414C4C207461726756
:102CA00065743A220053756263616C6C204F7665DF
:102CB00072666C6F77004578636565646564206D46
:102CC000617820535542524F5554494E4520646512
:102CD0007074683A0057726974696E6720746F2067
:102CE00066696C653A2000667265736800646F6996
:102CF0006E67002066696C653A20004E6F77200091
:102D00002F6175746F25632E6700FFE0FFD1A4AFBC
:102D1000FFD0FFFEFFE0FFD1AEA5FFD0FFFEFFE03A
:102D2000FFD11000FFFEFFD0FFE0FFC1FFD1E24066
:102D3000A0C8A6A22FF800238127AC00AFFF64A58E
:102D4000FF64FF64A4FFD0FFFE026D61726C696EC8
:102D500066772E6F726700322E302E392E36001FA6
:102D6000FFFFFFFFFFFF600000000001FF400000C9
:102D7000000000FF8000000000007F83CF00000CF7
:102D8000303F87FF80000C301F867980000C000FD9
:102D90008C30C7838C30E78C30CFC7CC31F38C308C
:102DA000DCECEC33B98C30D86C6C33198C30D06CD3
:102DB0000C33198C30D86C0C33198C30DC6C0E3B16
:102DC000198C30CF7C079F198C30C77C038F19403A
:102DD000000000000002600000000000061FFFFF6E
:102DE000FFFFFFF870012C0190012701B0012201C3
:102DF000C0011D01F00118011002130130020E0183
:102E00006002090190020401C002FF000003FA0001
:102E10004003F5008003F000D003EB002004E6003F
:102E20007004E100E004DC004005D700C005D200DA
:102E30004006CD00D006C8008007C3003008BE00A1
:102E4000F008B900C009B400B00AAF00B00BAA0086
:102E5000D00CA500000EA000500F9B00C0109600E3
:102E60005012910000148C00C0158700B01782002A
:102E7000B0197D00D01B7800001E730040206E004A
:102E800090226900F024640040275F0090295A00D6
:102E9000E02B5500102E500020304B001032460021
:102EA000E033410090353C00103737007038320075
:102EB000A0392D00B03A2800A03B2300603C1E0042
:102EC000103D1900903D1400103E0F00703E0A00A6
:102ED000C03E0500003F0000403FFBFF803FF6FF83
:102EE000C03FF1FF2020506C616E6E6572427566C6
:102EF00066657242797465733A2000204672656592
:102F0000204D656D6F72793A200020436F6D7069B6
:102F10006C65643A204D617920203620323032339E
:102F20000A00204C61737420557064617465643AC2
:102F300020323032322D30372D3239207C2041750D
:102F400074686F723A20286E6F6E652C2064656617
:102F500061756C7420636F6E666967290A004D6144
:102F6000726C696E20322E302E392E360A002053B4
:102F70006F6674776172652052657365740A00200C
:102F80005761746368646F672052657365740A00E3
:102F90002042726F776E206F75742052657365746E
:102FA0000A002045787465726E616C205265736505
:102FB000740A00506F77657255700A0073746172FD
:102FC000740A004732385859004D31303031006FA3
:102FD0006B006572726F722077726974696E672018
:102FE000746F2066696C650A00446F6E65207361BA
:102FF00076696E672066696C652E0A004D3239006D
:10300000456E6473746F707300255320256320250B
:103010006320256320256300205A3A0020593A0096
:1030200020583A00656E6473746F70732068697419
:103030003A200000000A0B02090C0D0E08070304D9
:10304000010000000000000000000000000000007F
:10305000000000000000000000000000000000125E
:10306000111000000000000000000000000000003F
:103070000000000000000000004D6F766520246D08
:103080006D00302E303235004D6F766520302E3198
:103090006D6D004D6F766520316D6D004D6F7665FD
:1030A0002031306D6D004D6F766520417869730079
:1030B0004D6F7665202A004D6F7665204000486F81
:1030C0006D696E67204661696C656400010101509D
:1030D000726F62696E67204661696C65640A0050B0
:1030E000726F62696E67204661696C656400205A80
:1030F0003A200020593A200042656420583A2000C6
:10310000220A00556E6B6E6F776E20636F6D6D6176
:103110006E643A20220020746F6F206C6F6E6720FF
:10312000657874727573696F6E2070726576656EFE
:103130007465640A0020636F6C642065787472752E
:1031400073696F6E2070726576656E7465640A00CF
:10315000486F6D652025732573257320466972734A
:10316000740020453A00205A3A0020593A00583A53
:10317000006F6B0A00526573656E643A20000000B0
:103180002200250028002B002E003100340002010F
:103190000000050108010B010000210024002700A8
:1031A0002A002D0030003300010100000401070156
:1031B0000A010505050507050808080802020202BC
:1031C0000A0A0808040404040101010101010101C3
:1031D0000303030303030303040707070C0C0C0C8E
:1031E0000C0C0C0C02020202060606060606060677
:1031F0000B0B0B0B0B0B0B0B010210202008081004
:103200002040102040800201020108040201010256
:10321000040810204080804020100804020180042F
:10322000020180402010080402010804020101028A
:103230000408102040800102040810204080556CD2
:1032400074696D617465322052656164792E005035
:1032500072696E74696E672E2E2E005072696E74DC
:103260002050617573656400B600CC0011241FBE48
:10327000CFEFD1E2DEBFCDBF00E00CBF84B78093BB
:10328000921614BE0FB6F894A895809160008861DC
:1032900080936000109260000FBE13E0A0E0B2E0E7
:1032A000E4EAF3E602E00BBF02C007900D92A039FA
:1032B000B107D9F726E1A0E9B3E001C01D92A23918
:1032C000B207E1F719E1C5E3D9E100E006C02197B3
:1032D0000109802FFE010F947F2EC433D10780E0B7
:1032E0000807A9F70F94DD190D94C1310C94000063
:1032F0006091310270913202072E000C880B990BFD
:103300000F94BE272AE037ED43E25CE30F941D28BB
:103310002091E7053091E8054091E9055091EA05D3
:103320000F941D2860937A0270937B0280937C0235
:1033300090937D020895CF93DF93EC01CB01BA0106
:103340000F94BE2729EC38EC48EC5EE30F94642F11
:1033500020E030E040E05FE30F94882E0F94D12FFF
:103360006883DF91CF9108958091D408811104C0C2
:1033700080915B0580932F09089580910A16882318
:10338000C1F0815080930A16E8E4F4E1882351F0FB
:103390008150990B2BE1289FF001299FF00D1124FA
:1033A000E450FB4E8BE1ADE2B4E101900D928A95C1
:1033B000E1F720910A16211105C08091151680644D
:1033C0008093151681E090E0A0E0B0E0211103C0E9
:1033D00080E090E0DC018093BE089093BF08A0934A
:1033E000C008B093C1081092C30881E08093B80868
:1033F00083E080937902089581E08093BC0308956F
:1034000082E08093BC030895CF93DF93EC01CB015E
:10341000BA010F94BE270F94D12F6883DF91CF910B
:1034200008950C94A92C8F929F92AF92BF92CF9245
:10343000DF92EF92FF92CF936B017C0120E030E0AE
:10344000A9010F94B82787FD9FC06DEB77E386E055
:1034500095E3A70196010F94882E6B017C0120E073
:1034600030E040E251E40F941D2820E030E048ECC9
:1034700052E40F941D284B015C0120E030E0A901CB
:10348000C701B6010F94B82720E030E040EA50E4CD
:1034900087FF04C020E030E040EA50ECC501B401F1
:1034A0000F94882E20E030E040E251E40F94642F26
:1034B0000F94CC2F6B017C018BE2F7FE09C0F094D6
:1034C000E094D094C094C11CD11CE11CF11C8DE28D
:1034D0008093C608C701B60120E137E240E050E022
:1034E0000F94042E8AE0882E912CA12CB12CCA01B5
:1034F000B901A50194010F94042E605D6093C70883
:10350000C701B60128EE33E040E050E00F94042EEE
:10351000CA01B901A50194010F94042E605D609366
:10352000C808C701B60124E630E040E050E00F943F
:10353000042ECA01B901A50194010F94042E605D07
:103540006093C9088EE28093CA08C701B601A5013D
:1035500094010F94042EC62FCA01B901A50194014C
:103560000F94042E605D6093CB08C05DC093CC08BF
:1035700086EC98E0CF91FF90EF90DF90CF90BF90D6
:10358000AF909F908F9008956DEB77E386E095EB79
:1035900060CF8F929F92AF92BF92CF92DF92EF92C5
:1035A000FF92CF936B017C0120E030E0A9010F94E2
:1035B000B82787FDC3C06DEB77E386E095E3A701ED
:1035C00096010F94882E6B017C0120E030E0A90168
:1035D0000F94B82787FFB7C0C701B601905820E005
:1035E00030E040E251E40F941D2820E030E040E25A
:1035F00051E40F941D2820E030E040EA50E40F949D
:10360000882E20E030E040E251E40F94642F0F94C4
:10361000CC2F6B017C0160E280EAC81686E8D806F0
:1036200081E0E806F1048CF0C701B60120EA36E833
:1036300041E050E00F94042ECA01B9012AE030E0C5
:1036400040E050E00F94042E605D6093C60860E295
:1036500080E1C81687E2D806E104F1048CF0C701C6
:10366000B60120E137E240E050E00F94042ECA0199
:10367000B9012AE030E040E050E00F94042E605D94
:103680006093C70860E288EEC81683E0D806E104BC
:10369000F1048CF0C701B60128EE33E040E050E0C1
:1036A0000F94042ECA01B9012AE030E040E050E056
:1036B0000F94042E605D6093C80860E284E6C8162B
:1036C000D104E104F1048CF0C701B60124E630E036
:1036D00040E050E00F94042ECA01B9012AE030E026
:1036E00040E050E00F94042E605D6093C9088AE0CA
:1036F000882E912CA12CB12CC701B601A5019401F3
:103700000F94042EC62FCA01B901A50194010F948C
:10371000042E605D6093CA088EE28093CB08C05D82
:10372000C093CC0886EC98E0CF91FF90EF90DF90AB
:10373000CF90BF90AF909F908F9008956DEB77E3FF
:1037400086E095EB3CCF20E030E040E251E4C70159
:10375000B60149CF8F929F92AF92BF92CF92DF92E4
:10376000EF92FF92CF936B017C0120E030E0A90142
:103770000F94B82787FFA3C06DEB77E386E095EB46
:10378000A70196010F94882E6B017C0120E030E0A8
:1037900040E251E40F941D2820E030E048EC52E470
:1037A0000F941D284B015C0120E030E040E251EC19
:1037B000C701B6010F94B827181654F420E030E082
:1037C00048EC52E4C701B6010F94AF3087FD8BC0BF
:1037D00020E030E0A901C701B6010F94B82787FFA8
:1037E00073C060E070E080EA90ECA50194010F9452
:1037F000882E20E030E040E251E40F94642F0F94D3
:10380000CC2F6B017C01F7FC64C020E137E240E083
:1038100050E00F94042ECA01B9012AE030E040E0E4
:1038200050E00F94042E605D6093C708C701B60195
:1038300028EE33E040E050E00F94042E9AE0892E09
:10384000912CA12CB12CCA01B901A50194010F94AE
:10385000042E605D6093C808C701B60124E630E01D
:1038600040E050E00F94042ECA01B901A501940173
:103870000F94042E605D6093C9088EE28093CA089D
:10388000C701B601A50194010F94042EC62FCA01E9
:10389000B901A50194010F94042E605D6093CB08DB
:1038A000C05DC093CC0887EC98E0CF91FF90EF907B
:1038B000DF90CF90BF90AF909F908F9008956DEB69
:1038C00077E386E095E35CCF60E070E080EA90E427
:1038D0008CCFF094E094D094C094C11CD11CE11C16
:1038E000F11C6DE2A1CF20E030E0A901C701B601D3
:1038F0000F94B82787FF6AC060E070E080EA90EC20
:10390000A50194010F94882E20E030E040E251E4BC
:103910000F94642F0F94CC2F4B015C0120E030E01A
:10392000A901C701B6010F94AF3087FD0BC020E09D
:1039300030E040E251E4C701B6010F94B82760E2DD
:1039400087FD13C0B7FC47C0C501B40128EE33E0C2
:1039500040E050E00F94042ECA01B9012AE030E0A3
:1039600040E050E00F94042E605D6093C808C501EC
:10397000B40124E630E040E050E00F94042E8AE0E9
:10398000C82ED12CE12CF12CCA01B901A701960156
:103990000F94042E605D6093C9088EE28093CA087C
:1039A000C501B401A70196010F94042EC62FCA01C8
:1039B000B901A70196010F94042E605D6093CB08B6
:1039C000C05DC093CC0888EC98E06FCF60E070E0F9
:1039D00080EA90E495CFB094A09490948094811C58
:1039E000911CA11CB11C6DE2C0CFCF93DF93EC0101
:1039F000CB01BA010F94BE2720E030E040E251E451
:103A00000F94642F688379838A839B83DF91CF919E
:103A10000895CF93DF93EC01CB01BA010F94BE2739
:103A200020E030E040E251E40F94642F6883798312
:103A30008A839B83DF91CF9108950F94BE2720E066
:103A400030E040E251E40F94642FA3CDCF93DF9395
:103A5000EC01CB01BA010F94BE2720E030E048EC26
:103A600052E40F94642F688379838A839B83DF9168
:103A7000CF910895CF93DF93EC01CB01BA010F945E
:103A8000BE2720E030E048EC52E40F94642F6883B6
:103A900079838A839B83DF91CF9108950F94BE270A
:103AA00020E030E048EC52E40F94642FBCCCCF937C
:103AB000DF93EC01CB01BA010F94BE270F94CC2FFA
:103AC00079836883DF91CF910895CF93DF93EC01E1
:103AD000CB01BA010F94BE27688379838A839B83C5
:103AE000DF91CF910895CF93DF93EC01CB01BA0121
:103AF0000F94BE2720E030E04AE754E40F94642F8F
:103B0000688379838A839B83DF91CF9108950F9493
:103B1000BE2720E030E048EC52E40F94642F1ACE28
:103B20002CEA35EC47E25EE360914D0570914E055D
:103B300080914F05909150050F94642F6093A708D2
:103B40007093A8088093A9089093AA0808952CEA76
:103B500035EC47E25EE3609151057091520580912A
:103B60005305909154050F941D286093A3087093FA
:103B7000A4088093A5089093A6080895FC01849159
:103B80000895FC01808108950F931F93522F209177
:103B9000BC143091BD142817390731F11092BE03BF
:103BA0009093BD148093BC148B0130E020E000930F
:103BB000BE081093BF082093C0083093C1084093FB
:103BC000C3085093B70880509B4421F41092BF0360
:103BD0001092490582E08093790281E08093B808D1
:103BE0001092570510924C051F910F91089520E0F7
:103BF00040E070E060E085EB9FE1C6CFCF93C1E08D
:103C0000C093BF03FC0180819181A281B381809325
:103C10001E0290931F02A0932002B093210220E085
:103C200040E070E060E08091C4089091C508ACDF8E
:103C3000C093BE03CF910895CF93DF9300D01F921E
:103C4000CDB7DEB78DEC9CECACECBCE389839A83FA
:103C5000AB83BC83CE010196D1DF0F900F900F9004
:103C60000F90DF91CF910895CF93DF9300D01F92F3
:103C7000CDB7DEB78DEC9CECACECBDE389839A83C9
:103C8000AB83BC83CE010196B9DF0F900F900F90EC
:103C90000F90DF91CF910895CF93DF9300D01F92C3
:103CA000CDB7DEB780E090E0A0E8BFE389839A83D8
:103CB000AB83BC83CE010196A1DF0F900F900F90D4
:103CC0000F90DF91CF910895CF93DF9300D01F9293
:103CD000CDB7DEB780E090E0A0E2B1E489839A83BB
:103CE000AB83BC83CE01019689DF0F900F900F90BC
:103CF0000F90DF91CF910895E0914905E63028F5C6
:103D000081E08E0F809349054091BE085091BF0815
:103D10006091C0087091C1082091C3089091B708C4
:103D20008091BF0339E0E39FF0011124EC5FFA4F6B
:103D3000A091BC14B091BD14B183A083428353837E
:103D400064837583268397838087089520E040E00D
:103D500070E060E080E09BE417CFFC01A081B181BE
:103D60001C92A281B3818C918F5F8C930280F3812E
:103D7000E02D90818CE0989F800D1124EEEBF4E112
:103D800013AE84AF089590E080E00895CF93DF9361
:103D9000C0919C08D0919D0881E0CE31D105E4F01E
:103DA00020E030E040E05FE360919808709199086E
:103DB00080919A0890919B080F94882E0F94CC2F95
:103DC0006C1B7D0B77FF03C071956195710981E0D4
:103DD000633071050CF080E0DF91CF91089590E0A1
:103DE00080E00895CF92DF92EF92FF92CF93C82F99
:103DF0000F945C0B6B017C0124EA30E74DE75FE335
:103E000060911E0270911F02809120029091210208
:103E10000F94B82787FD18C08AEF90E0A0E0B0E0CB
:103E20008C0D9D1DAE1DBF1D8093EE049093EF047D
:103E3000A093F004B093F104C0931002CF91FF90CF
:103E4000EF90DF90CF90089580E090E0DC01E8CF24
:103E5000CF92DF92EF92FF920F931F930F945C0B20
:103E60000091C5041091C6042091C7043091C80484
:103E70006B017C01C01AD10AE20AF30A970186019C
:103E800037FD11C02091C40420952093C4046A54C6
:103E90007C4F8F4F9F4F6093C5047093C6048093EF
:103EA000C7049093C80481E09091C404911101C0AB
:103EB00080E01F910F91FF90EF90DF90CF900895D9
:103EC000CF93DF93CDB7DEB720E2488559856F8168
:103ED0008E810F94EA07DF91CF9108950F94BE274A
:103EE0000F94CC2FCB010C94A2D40F94BE2729ECB5
:103EF00038EC48EC5EE30F94642F20E030E040E0C3
:103F00005FE30F94882E0F94D12F24E6629FC001A7
:103F1000112481589F4F6FEF70E00F946C2E862F05
:103F20000C94F9D410922F090E94C6B60FCF60915D
:103F30005B058FEF0D94931880915B05682F0D94AE
:103F400093186FEF80915B050D94931866ED78E3FD
:103F500082E00D94071768ED78E381E00D94071770
:103F60006AED78E380E00D94071768E876E383E074
:103F70000D940717CF92DF92EF92FF92CF93DF93CA
:103F800000D01F92CDB7DEB76B017C0120E030E09E
:103F9000A9010F94B82787FD1BC06DEB77E386E07E
:103FA00095E3A70196010F94882E69837A838B830A
:103FB0009C83CE0101960E94A7D30F900F900F9083
:103FC0000F90DF91CF91FF90EF90DF90CF90089509
:103FD0006DEB77E386E095EBE4CF0F94BE2720E00E
:103FE00030E040E251E40F94642FC4CF82E793E1C4
:103FF0000E94F8A8ABDE0C947DFB0E947DFB0E9422
:10400000496B882351F08091151682FD06C087EF19
:1040100099E090935208809351080C9444D30F94E4
:10402000BE270F94D12F862F0C94D7D4809179027C
:10403000882341F060914A0570914B0541E081E091
:104040000D945F07089580919C0690919D060E94B3
:10405000EA67811107C085E09CE090935208809345
:104060005108089520E040E070E060E08EEA9CE5B1
:104070008BCD0F931F93CF93DF93CDB7DEB76E97A2
:104080000FB6F894DEBF0FBECDBF282F082E000C50
:10409000330B90911102409112028F3F39F0F901D8
:1040A000EE0FFF1FED5EFD4F908141814F939F9377
:1040B0003F938F9384E99AE09F938F938E010F5FD4
:1040C0001F4F1F930F930F9451274FE350E0B801F8
:1040D00083E598E00F94A73139DE0FB6F894DEBF80
:1040E0000FBECDBF6E960FB6F894DEBF0FBECDBF2C
:1040F000DF91CF911F910F9108958FEFBACF8091EB
:10410000D408B7CFCF92DF92EF92FF926B017C0180
:1041100020E030E0A9010F94B82787FD26C06DEBA1
:1041200077E386E095E3A70196010F94882E6B0153
:104130007C0120E030E0A9010F94B82720E030E0B6
:1041400040E05FE387FF04C020E030E040E05FEB49
:10415000C701B6010F94882E0F94CC2FCB01FF908E
:10416000EF90DF90CF900C9423D46DEB77E386E053
:1041700095EBD9CF0F94BE27C5CFCF92DF92EF92A8
:10418000FF92CF93DF9300D01F92CDB7DEB70F948D
:10419000BE2720E030E04AE754E40F94642F6B011F
:1041A0007C0120E030E0A9010F94B8272DEB37E324
:1041B00046E055E387FF04C02DEB37E346E055EBBF
:1041C000C701B6010F94882E69837A838B839C8301
:1041D000CE0101960F9497080F900F900F900F90BB
:1041E000DF91CF91FF90EF90DF90CF9008950C94E6
:1041F00049BD0C9449BD2CEA35EC47E25EE3609181
:104200004D0570914E0580914F05909150050F948A
:10421000642F6093A7067093A8068093A9069093D5
:10422000AA0608952CEA35EC47E25EE36091510559
:104230007091520580915305909154050F941D285B
:104240006093A3067093A4068093A5069093A60698
:104250000895EF92FF920F931F93CF93DF93EC019A
:104260008B017A018A859B858617970731F08881B3
:1042700099810F943D141B870A87B7018881998122
:104280000F9457082E813F81820F932F911D9F839A
:104290008E8390E080E0DF91CF911F910F91FF908E
:1042A000EF9008959F92AF92BF92CF92DF92EF92DC
:1042B000FF920F931F93CF93DF93EC018B01942E0A
:1042C000A52E8A859B858617970731F0888199816D
:1042D0000F943D141B870A8788859985019649F5B7
:1042E000BC800A818E81080FC880D980D60155967E
:1042F000ED91FC91C6011995B80EE92CFA2C10E04D
:10430000F70121917F01211127C08E819F81810FAB
:10431000911D9F838E8390E080E0DF91CF911F916C
:104320000F91FF90EF90DF90CF90BF90AF909F9054
:1043300008950E811F81692D7A2D888199810F94AE
:104340005708800F912F911D288539852817390727
:1043500038F681E090E0E1CF4B2D602FC6010F943D
:104360009514080F180FCCCFDF92EF92FF920F93A6
:104370001F93CF93DF93EC01D62E1CAD0BAD7C01C8
:1043800084E0E80EF11CE98DFA8DC7011995412FE3
:10439000480F2D2D602FC7010F9495149BAD890FE9
:1043A0008BAF81E090E0DF91CF911F910F91FF9053
:1043B000EF90DF900895CF92DF92EF92FF920F93EC
:1043C0001F93CF93DF93CDB7DEB72C970FB6F8943A
:1043D000DEBF0FBECDBFF090F914E090FA1420912B
:1043E000C30421111DC042E858E06E2D8F2D0F949B
:1043F000001590E080E0F80EF092F914E092FA14C3
:1044000099272C960FB6F894DEBF0FBECDBFDF9173
:10441000CF911F910F91FF90EF90DF90CF90089573
:10442000C090C614D090C71422EC34E13A8329839B
:104430002F2D30E03C832B832E2D30E03E832D83C7
:1044400018861F827A8769871C861B8602E511E21F
:104450009E012F5F3F4F4EEB5DE1BC01C6010E9404
:1044600019FBB60182EC94E10F943D148F8198857D
:10447000C2CF0F931F93CF938C01C62F8BE193E094
:104480000E94B36BC8010E94B36B8AE30E94AC6BBD
:1044900080E38C0F0E94AC6B8AE0CF911F910F914B
:1044A0000C94AC6B0E94B6BC882339F020E040E04D
:1044B00070E060E081E59FE267CB99CB0F931F939B
:1044C000CF93DF938C01EB019091AA142091AB1450
:1044D000921305C00E94ABDC0E9490D7F5CF80916B
:1044E000A91434E0839FF0011124E455FB4E11839D
:1044F0000083D383C2839F5F9093AA148F5F281792
:1045000039F08093A914DF91CF911F910F910895F5
:104510001092A914F8CF63E972E084E690E0CEDF50
:1045200070E060E08AE090E0C9DF6AEB72E084E668
:1045300090E0C4CF0E9472D0EECF8111ECCF68E240
:1045400070E080E991E0BACF0E94B6B8F6CF0E9441
:1045500088E6F3CF0E9472D00E94B6B8EEDFF6CBA9
:10456000CF93DF93C0919C06D0919D06209729F1AF
:10457000609198067091990680919A0690919B0699
:104580000F94CC2F6E5F7F4F24976C177D07ACF490
:1045900070938F0660938E060F945C0B605E714B78
:1045A0008F4F9F4F60939006709391068093920671
:1045B00090939306DF91CF910895109290061092F8
:1045C00091061092920610929306F4CFC9CFCF9322
:1045D000DF93EC0191DB20E040E070E060E0CE0191
:1045E000DF91CF91D1CA611160931D024093BD0349
:1045F000EFEFE80FEB3008F035C00E2E000CFF0B8C
:104600008827EA5FFC4D8F4F0D947F2E332336238E
:1046100011231B231E2321232D232423322327236D
:104620002A238DED95E321E02093BF0320E040E0B5
:1046300070E060E0A9CA83EE95E3F5CF86EE95E3DE
:10464000F2CF89EE95E3EFCF8CEE95E3ECCF8FEED2
:1046500095E3E9CF82EF95E3E6CF1092BC0381EBBF
:104660009FE3E1CF73CB8AED95E3DDCF80EE95E359
:10467000DACF282F1092D2088091BE089091BF08FF
:10468000A091C008B091C108B7FF08C01092BE0841
:104690001092BF081092C0081092C10880915A056C
:1046A000882331F08091BE088093C2081092B80828
:1046B0008091B7081816FCF4082E000C990B821B89
:1046C00091092091C208022E000C330B28173907DC
:1046D00094F097FF02C090E080E08093C208092E1A
:1046E000000CAA0BBB0B8093BE089093BF08A0934D
:1046F000C008B093C1088091C2086623A9F09091C8
:10470000C308891714F48093C3082091C308022EAC
:10471000000C330B2C5F3F4F482F082E000C550B1D
:10472000241735071CF484508093C30808952F92F2
:104730003F924F925F926F927F928F929F92AF9231
:10474000BF92CF92DF92EF92FF920F931F93CF937E
:10475000DF9300D000D0CDB7DEB71C017A83698328
:104760002B833C834D835E832701380181E0809356
:10477000B808C2DA83E0809379023092480520922B
:10478000470589819A8190934605809345058B81E1
:104790009C81AD81BE818093410590934205A09399
:1047A0004305B093440540923D0550923E0560920A
:1047B0003F0570924005F12CE12CC092BE08D092CA
:1047C000BF08E092C008F092C108B092BD14A09258
:1047D000BC1490923C0580923B058C8D80933A05E9
:1047E00026960FB6F894DEBF0FBECDBFDF91CF91F6
:1047F0001F910F91FF90EF90DF90CF90BF90AF90FF
:104800009F908F907F906F905F904F903F902F90F0
:104810000895CF93DF93C0914905CC23B1F0C150E7
:10482000C093490589E0C89FE0011124CC5FDA4FAD
:104830006A817B812F814E8188819981A5D9888564
:104840008093BF03DF91CF910895DF91CF917ECA0E
:104850004F925F926F927F928F929F92AF92BF9290
:10486000CF92DF92EF92FF920F931F93CF93DF933C
:1048700000915B0561E081E0FCDEC091C30810E0BF
:10488000000F111F0450114F95E0592E5C0E24EDBE
:10489000E22E2EE0F22ED3E0DC1B31EAC32E3FE104
:1048A000D32E42EEA42E4EE0B42E82E0782E7C1A57
:1048B00059E0852E5FE0952E81E0682E6C1A4C2E13
:1048C0004194C11136C08091C2088823B1F0809113
:1048D0007902882359F081E09091C208911180E01B
:1048E00024E040EF5EE0642D0F94EA07CF5FC5112E
:1048F000E8CF84E08093B7080BC08091B90810928C
:10490000B908882321F385DF8091B8088823F9F25C
:10491000DF91CF911F910F91FF90EF90DF90CF909B
:10492000BF90AF909F908F907F906F905F904F90CF
:104930000895C13089F5F801859194911092D408B9
:104940009093D8088093D7081092D6081092D50873
:104950008091C208813081F080917902882331F200
:104960001F929F928F926F9281E09091C208913036
:1049700009F47EC080E07CC08091B9081092B9082B
:10498000882351F380915B05682F0F9493188091D1
:10499000B808882309F3BCCFC23009F046C0F8013B
:1049A000859194911092D4089093D8088093D70859
:1049B0001092D6081092D5088091C2088230C9F0B2
:1049C00080917902882309F491CFDF92CF92BF9230
:1049D000AF927F9281E09091C208923009F080E01E
:1049E0008F936EDA0F900F900F900F900F900F90A3
:1049F0007DCF8091B9081092B908882309F3A1DA14
:104A00008091B8088823E1F283CF8091B908109291
:104A1000B9088823F1F060915B058FEF0F9493182C
:104A20008091B8088823A9F073CFC33009F05ECF16
:104A3000F801859194911092D4089093D8088093AE
:104A4000D7081092D6081092D5088091C2088330FA
:104A5000E1F280917902882309F448CF1F92FF92F6
:104A6000EF92DF9381E09091C208933009F082CFFA
:104A70008F9326DA0F900F900F900F900F9036CFF4
:104A80007F928F929F92AF92BF92CF92DF92EF92DE
:104A9000FF920F931F93CF93DF9361E081E0E9DDF5
:104AA000C091C30885E0882E8C0E91EAE92E9EE025
:104AB000F92ED4E0DC1B24EBC22E2EE0D22E13E024
:104AC0001C1B3BECA32E3EE0B32E02E00C1B81E04E
:104AD000982E9C1A7C2E7194C11133C08091C2080B
:104AE0008823B1F080917902882359F081E0909178
:104AF000C208911180E024E04FEC5EE0672D0F9436
:104B0000EA07CF5FC811E8CF85E08093B7080BC0F4
:104B10008091B9081092B908882321F37ADE809138
:104B2000B8088823F9F2DF91CF911F910F91FF9080
:104B3000EF90DF90CF90BF90AF909F908F907F903D
:104B40000895C13009F58091C208813079F08091D3
:104B500079028823B1F281E09091C208913009F086
:104B600080E023E046EA50E3692DC9CF8091B9087F
:104B70001092B908882359F38FE296E228DD8091DC
:104B8000B808882321F3CFCFC23009F051C09091EB
:104B9000C208923071F080917902882309F4B1CF74
:104BA00081E0923009F080E020E241EC5EE0602F8D
:104BB000A6CF8091B9081092B908882361F3B0920A
:104BC0005208A09251088091B808882321F3ABCFF6
:104BD0009091C208933071F080917902882309F492
:104BE00090CF81E0933009F080E020E245EA5EE07A
:104BF000612F85CF8091B9081092B908882361F39D
:104C0000D0925208C09251088091B808882321F3AD
:104C10008ACF8091B9081092B908882391F0F09258
:104C20005208E09251088091B808882351F07BCF58
:104C3000C33071F2C43009F064CF9091C20894304F
:104C400041F380917902882309F45BCF81E09430AD
:104C500009F080E020E240E95EE06D2F50CFBF9286
:104C6000CF92DF92EF92FF920F931F93CF93DF9338
:104C700061E081E0FEDCC091C30885E0E82EEC0E27
:104C8000D4E0DC1B01E092E0F92E13E01C1BDF2CCA
:104C9000DC1AC02ECC1ABC2EB194C1112FC0809149
:104CA000C2088823B1F080917902882359F081E00D
:104CB0009091C208911180E024E049E85EE06B2DFC
:104CC0000F94EA07CF5FEC12E8CF85E08093B70836
:104CD0000BC08091B9081092B908882321F399DD9F
:104CE0008091B8088823F9F2DF91CF911F910F913D
:104CF000FF90EF90DF90CF90BF900895C13059F5AD
:104D00001092D4081092D8081092D7081092D608A2
:104D10001092D5088091C208813079F08091790293
:104D2000882381F281E09091C208913009F080E0FF
:104D300023E047EB50E36C2DC3CF8091B90810926C
:104D4000B908882359F380EB9FE141DC8091B808D2
:104D5000882321F3C9CFC23009F066C00093D4087C
:104D60001092D8081092D7081092D6081092D50841
:104D70008091C208823081F080917902882309F401
:104D8000A1CF81E09091C208923009F080E023E049
:104D900047EB50E36D2D94CF8091B9081092B9087C
:104DA000882351F38BEA9FE112DC8091B8088823B5
:104DB00019F39ACFF092D4081092D8081092D7081D
:104DC0001092D6081092D5088091C208833081F0E5
:104DD00080917902882309F475CF81E09091C2080F
:104DE000933009F080E023E047EB50E3612F68CF78
:104DF0008091B9081092B908882351F386EA9FE19F
:104E0000E6DB8091B808882319F36ECF8091B9084A
:104E10001092B908882389F082E592E2D8DB80916C
:104E2000B808882351F060CFC33021F2C43009F0B4
:104E300049CF8091C208843049F380917902882358
:104E400009F440CF81E09091C208943009F080E0ED
:104E500023E04BE75EE06D2F33CFCF92DF92EF92EE
:104E6000FF920F931F93CF93DF930E943F6BF82E17
:104E700061E081E0FEDBC091C30811E0F11001C0E8
:104E800012E0EC2E85E0D82EDC0ECC2EC19401E091
:104E90000C1BCC2379F1F11072C0C13009F06FC046
:104EA0008091C208813009F44DC08091790281114E
:104EB00059C0D2E081E08D0F8C1315C08091C208DB
:104EC0008C1709F481C080917902882361F06C2FDE
:104ED0006E1981E09091C2089C1380E023E04EE0BF
:104EE0005BE00F94EA07CF5FCD11D3CFDE5FD093A5
:104EF000B7081FC08091C208882381F08091790291
:104F0000882349F281E09091C208911180E024E069
:104F10004CE25BE06C2D0F94EA073BC08091B9082E
:104F20001092B908882351F374DC8091B808882363
:104F300029F3DF91CF911F910F91FF90EF90DF90B8
:104F4000CF9008958091B9081092B908882309F488
:104F5000ACCF8FE992E43BDB8091B808882309F459
:104F6000A4CFE7CF81E09091C208913009F080E0B2
:104F700023E043E25BE0602F0F94EA079ACF1C1313
:104F800008C08091C208811731F0809179028111A7
:104F900010C0D12F8FCF8091B9081092B908882303
:104FA000A1F38EEF93E413DB8091B808882369F3B3
:104FB000C0CF6C2F6E1981E09091C2089C1380E0E5
:104FC00023E047E15BE0A7CF8091B9081092B908D0
:104FD000882309F478CF87EA98E4F9DA8091B80851
:104FE000882309F470CFA5CF80935B0520E040E0D3
:104FF00070E060E08DEF9FE20C94C41DCF93DF93CF
:10500000CDB7DEB78E81282F082E000C330B909180
:10501000EF139217130609F08CF48093EF139E019F
:10502000275F3F4F4F8158856AE270E084EC93E13F
:105030000F9480271092C3131092C213DF91CF9167
:1050400008950F931F93CF93DF938C016F3F19F453
:105050001092EF1360E02091EF13862F062E000CC4
:10506000990B2817190609F014F56093EF13C8017E
:105070000F940727800F911FEC01C01BD10BCB327F
:10508000D1053CF00197FC012491207C2038D1F31C
:10509000F3CFDD27AE01B80184EC93E10F9428270C
:1050A000CC53DC4E18821092C3131092C213DF91BE
:1050B000CF911F910F910895CF938091FC0481119E
:1050C00009C08CEE99E090934B0580934A0581E0EE
:1050D0008093FC040E947C1E20E040E070E060E0D1
:1050E00086E190E20E94C41DC1E0C093BF030E940C
:1050F0006CBD8FDBC093BF0360E08BE592E3A1DF63
:1051000088EE99E09093520880935108CF910895CA
:105110002F923F924F925F926F927F928F929F92C7
:10512000AF92BF92CF92DF92EF92FF920F931F93B5
:10513000CF93DF9300D01F921F92CDB7DEB70E94AE
:10514000266B282E8091151684FB222720F92D83AB
:10515000312C84FF03C00E94496B382E61E081E04E
:1051600088DA8091C3088C83582E8B5F8983612CE9
:105170000CEE1DE040E9E42E4DE0F42E81E0482ED7
:10518000451857EB852E5DE0952E82E0782E751838
:10519000952D91959A836CE5C62E68E2D62E79E01E
:1051A000A72E7EE0B72E83E085198B838C819981B1
:1051B000891709F443C2882309F44FC02110A4C001
:1051C0009D81992309F4A9C1332009F459C16624AA
:1051D00063940E94576B882329F19C81691221C036
:1051E0008091C208861509F4C1C180917902882393
:1051F000C1F08DEF9FE19F938F931F930F938C814D
:1052000085198F9381E09091C2082C81921380E0E0
:105210008F930E94601F0F900F900F900F900F9030
:105220000F9063948C81681216C08091C208861515
:1052300009F4ABC180917902882369F06C8165190A
:1052400081E09091C2082C81921380E023E045EE2A
:105250005DE00F94EA07639419C08091C208882327
:1052600081F180917902882309F4A8CF81E090919F
:10527000C208911180E024E045E15EE06A810F946C
:10528000EA07222009F49CCF34E0632E8C81681257
:105290005EC08091C208861509F487C180917902A9
:1052A000882309F454C06C81651981E09091C2088B
:1052B0002C81921380E023E049ED5DE00F94EA0732
:1052C00046C08091B9081092B908882351F2A1DA3A
:1052D0008091B808882329F20F900F900F900F90BB
:1052E0000F90DF91CF911F910F91FF90EF90DF9082
:1052F000CF90BF90AF909F908F907F906F905F9076
:105300004F903F902F9008952C81213009F45AC07E
:10531000223009F481C08C81833009F0B5CF8091AF
:10532000C208833009F49CC080917902882309F473
:10533000ABCF81E09091C208933009F080E023E088
:1053400049EF5DE06B810F94EA0724E0622E81E073
:10535000860D9C81891316C08091C208891709F4B3
:1053600034C180917902882369F06C81651981E0EC
:105370009091C2082C81921380E023E04BEC5DE019
:105380000F94EA0782E0860D9C81891315C09091E5
:10539000C2082C81921709F429C1809179028823CF
:1053A00059F06C81651981E02C81921380E023E033
:1053B0004BEB5DE00F94EA078C818F5F8C8393E069
:1053C000690EF4CE8091C2088130D1F080917902CB
:1053D000882309F459CFDF92CF92BF92AF924F92B8
:1053E00081E09091C208913009F080E08F930E9493
:1053F000601F0F900F900F900F900F900F9044CF61
:105400008091B9081092B908882301F355DE809184
:10541000B8088823D9F260CF8091C208823091F019
:1054200080917902882309F42FCF81E09091C208FE
:10543000923009F080E023E04EEF5DE0672D0F949D
:10544000EA0722CF8091B9081092B908882341F366
:105450008FED9FE2BCD88091B808882309F33CCF38
:105460008091B9081092B908882309F45DCF84EBC4
:105470009BE3ADD88091B808882309F455CF2CCF91
:105480002C81213029F0223029F193E0692EA1CE20
:105490009091C208913079F0809179028823A9F324
:1054A00081E0913009F080E020E24AEA5DE0642D7D
:1054B0000F94EA07EACF8091B9081092B9088823BF
:1054C00059F390925208809251088091B80888232D
:1054D00019F37DCE8091C208823079F080917902F3
:1054E000882399F281E09091C208923009F080E01F
:1054F00023E049E95DE0672DDBCF8091B908109288
:10550000B908882359F38BEE9EE561D88091B808DD
:10551000882321F382E0682E5CCE8C818130D1F724
:105520009091C2089130B9F080917902882391F36B
:105530001F921F92FF92EF924F9281E0913009F0FB
:1055400080E08F930E94601F0F900F900F900F903C
:105550000F900F90DFCF8091B9081092B90888237F
:1055600019F38091B8088823F9F231CE8091B908F7
:105570001092B908882309F438CE0E94FD1F80914B
:10558000B808882309F431CEA7CE8091B9081092CB
:10559000B908882309F44ECE80E495E218D88091AA
:1055A000B808882309F446CE97CE8091B9081092A6
:1055B000B908882309F472CE83EB9DE308D8809163
:1055C000B808882309F46ACE87CE8091B908109272
:1055D000B908882309F4C5CE81EB90E40E94E72244
:1055E0008091B808882309F4BCCE76CE8091B908A2
:1055F0001092B908882309F4D0CE0E947C1E20E0C6
:1056000040E070E060E081EC9FE20F900F900F901F
:105610000F900F90DF91CF911F910F91FF90EF901E
:10562000DF90CF90BF90AF909F908F907F906F90C2
:105630005F904F903F902F900C94C41D6092B708DC
:105640004BCE1092B80310926D020E94496B90915C
:10565000151680FB97F99093151660E08AED99E096
:10566000F0DC0C94A61E0F931F930F945C0B00911B
:10567000FE081091FF082091000930910109601B7C
:10568000710B820B930B97FD0BC086B182958170D5
:1056900091E08927369B8260329B84608093020967
:1056A0008091020981709091020991FD8260909130
:1056B000FB04981749F0813009F148F0823079F005
:1056C000833091F08093FB041F910F9108959130E6
:1056D00079F09230B9F79091FA0491500CC0992367
:1056E00039F09330C1F3EECF9130A9F3923051F7F6
:1056F0009091FA049F5F9093FA04E4CF992359F3B1
:10570000933001F7F5CF8091020982FF07C062E371
:1057100070E080E090E00E94026BF5CF62E370E001
:1057200080E090E00C94026BFC0180E0309749F03F
:105730009491992331F0907C903809F08F5F3196E5
:10574000F7CF0895009751F0FC0180E091919923E3
:1057500031F0907C9038D1F38F5FF8CF80E00895DE
:10576000AF92BF92CF92DF92EF92FF920F931F936F
:10577000CF93DF93EC015B018A01FB01199587FD53
:1057800016C0C82ED12CF12CE12C2196F801C08234
:10579000D182E282F382CE01DF91CF911F910F91EE
:1057A000FF90EF90DF90CF90BF90AF900895982F2B
:1057B000907E903CA9F48F7190E0B0E0A0E06C0185
:1057C0007D0156E0CC0CDD1CEE1CFF1C5A95D1F778
:1057D000CE010196F50119958F73C82A2296D6CF6E
:1057E000982F907F903E11F58F7090E0B0E0A0E090
:1057F0006C017D0136E0CC0CDD1CEE1CFF1C3A95E3
:10580000D1F7CE010196F50119958F73C82A46E0AC
:10581000CC0CDD1CEE1CFF1C4A95D1F7CE01029684
:10582000F50119958F73C82A2396B0CF982F987FCA
:10583000903F79F5877090E0B0E0A0E06C017D01C9
:1058400086E0CC0CDD1CEE1CFF1C8A95D1F7CE0146
:105850000196F50119958F73C82A96E0CC0CDD1CD2
:10586000EE1CFF1C9A95D1F7CE010296F501199511
:105870008F73C82A26E0CC0CDD1CEE1CFF1C2A9579
:10588000D1F7CE010396F50119958F73C82A249696
:105890007DCF982F907C903841F4807C803869F4DB
:1058A0002196CE01F5011995F8CF8E7F8D3F28F016
:1058B0002196CE01F5011995F8CFC12CD12C760196
:1058C00065CF9CE0899F802D112491E0980F9093E3
:1058D000C2042CE0280F2093D30830E02E5F3F4F06
:1058E0004091F6144217130619F014F080E0089561
:1058F0002091F8149217D0F7662341F08E5F0F9431
:105900006B138091D3088E5F0F946B138091D30833
:105910009091F614891750F32091F8149091C204D5
:10592000291720F31092F9148093FA1481E0089556
:105930002091C004022E000C330B8217130641F095
:105940008093C00461E67FE082EC94E10D943D1405
:1059500008951F93CF93DF931F92CDB7DEB71091B9
:1059600051028091FB14811105C081E08093FB14EA
:105970000F9449126091C4147091C51419839E014B
:105980002F5F3F4F4FE082EC94E10F9445120F9050
:10599000DF91CF911F910895CF938091C104811120
:1059A0004EC01092F9141092FA141092FB14109237
:1059B000C7141092C6141092C9141092C8141092F1
:1059C000CB1481E08093CA1482E28093CC141092AD
:1059D000D1141092D014E5EEF4E18FEF819394E1AD
:1059E000E33FF907D9F7C1E0C093E2142DE137EEA8
:1059F0003093D8142093D714C093D9141092DA148A
:105A00001092DB1490E49093DC141092DD1429EED4
:105A100036EE3093F4142093F31428E032E0309300
:105A2000C5142093C4149DE19093E7149BE19093D7
:105A3000E6148093E5140F944912C093C1040B9AA5
:105A400013988FE19EE40197F1F700C00000139ACC
:105A50008FE19EE40197F1F700C00000C1E0C09320
:105A6000FB140F94491275DFC093C30482EC98E0D5
:105A70009093F1138093F0131092F3131092F2139A
:105A8000CF91089589DF3C98449A3E98469A3A9877
:105A9000429AE9DD1092FA040C947DFBEF92FF929A
:105AA0000F931F93CF93DF93CDB7DEB72C970FB62D
:105AB000F894DEBF0FBECDBFFC0160817181828191
:105AC00093816F3F71058105910509F0C0F48EEB5C
:105AD00094E10E94B421E091C614F091C71431966C
